:020000020000FC
:1000000011C0189518951895189518951895189564
:10001000189597C018951895189588C01895189533
:10002000189518C000E00EBF0FEB0DBF22EC21B9F0
:1000300041B123E020BB20E022BB28E023B98B9A0A
:1000400025E028BB22E029BB2EE226BB22E026BD0C
:10005000789400C011D017D01BD0F894012F392FFD
:1000600078941FD015D0032F070F1BD011D02BD0A1
:100070002BED22BB3CD0EECF406241B952B12ED025
:1000800033D029D0089500ED29E011D02AD0089569
:10009000F89441B14F7D41B9789426D060B121D018
:1000A0000895406241B929E002D01BD0089519D0CB
:1000B0002A9509F40895000F18F410D015D0F7CF41
:1000C0000AD012D0F4CF406241B905D00DD006D08D
:1000D0004F7D51B908955F7D52B90895506252B96C
:1000E00008955D7F52B90895526052B908953FE86E
:1000F00064E031506040E9F708953F9332B17723CF
:1001000039F430643F7732B9739500C03F91089558
:1001100030683F7B32B97727F9CF6F933F9360E820
:1001200032B1362732B93F916F9108952F932FB78F
:100130002F9320E022BB9EB11FB12F912FBF2F9193
:1001400018952F932FB72F93D8DF2F912FBF2F9173
:02015000189500
:00000001FF
