:020000020000FC
:1000000020C010C010C010C010C010C010C010C060
:1000100010C010C010C010C010C032C00FC00FC040
:100020000FC02DC018951895189518951895189506
:100030001895189518951895189518951895189558
:100040001895F89400E00EBF0FEB0DBF22E221B926
:1000500028E023B980E022E022B909D020E022B9CB
:1000600006D00BEE02BB03E000BB789408C00FEF94
:100070001FEF21E0015010402040E1F70895FFCF2D
:100080000FB70F930CD00EB11FB1602F1BD0062FEE
:1000900019D00FE01FE006D00F910FBF189520E296
:1000A00022B9089520E022B9089580E020E022B925
:1000B00004C081E020E022B900C00F910FBF2F9152
:0A00C0000F9108950A95F1F70895D5
:00000001FF
