:020000020000FC
:1000000011C0189518951895189518951895189564
:10001000189581C0189518951895189518951895E4
:10002000189517C020E421B920E422B925E028BBA7
:1000300022E029BB2EEF26BB22E026BD41B1426063
:1000400041B923E020BB23E922BB28E023B98B9AE6
:100050007894969A000012B300000000107101C05D
:10006000FACF2EB100001FB100000DD013D017D071
:10007000022F00001BD013D0012F000017D00FD08B
:1000800028D041D0E6CF41B1406241B930D037D01D
:100090002AD0089500ED29E010D02DD0089541B167
:1000A0004F7D41B92CD060B126D0089541B1406256
:1000B00041B929E002D01FD008951DD02A9509F436
:1000C0000895000F18F413D01AD0F7CF0CD017D022
:1000D000F4CF41B1406241B906D011D008D051B13E
:1000E0005F7D51B9089552B15F7D52B9089552B103
:1000F000506252B9089552B15D7F52B9089552B11C
:10010000526052B908957FEF8FEF90E071508040B8
:100110009040E1F7089560E432B1362732B918957E
:00000001FF
