:020000020000FC
:1000000042E041B914D01BD01FD008E423D01CD04B
:1000100005E420D019D00CE41DD016D00CE41AD081
:1000200013D00FE417D010D027D03AD0EBCF41B186
:10003000406241B952B12BD030D026D0089500EDA6
:1000400029E00ED027D008954F7D41B926D060B168
:1000500021D00895406241B929E002D01BD0089513
:1000600019D02A9509F40895000F18F410D015D06E
:10007000F7CF0AD012D0F4CF406241B905D00DD0ED
:1000800006D04F7D51B908955F7D52B908955062F1
:1000900052B908955D7F52B90895526052B90895DA
:1000A0007FEF8FEF91E0715080409040E1F708952D
:00000001FF
