:020000020000FC
:1000000011C0189518951895189518951895189564
:1000100018959DC01895189518958CC01895189529
:100020001895189500E00EBF0FEB0DBF8823A9F4BB
:1000300081E022EC21B941B123E020BB20E022BBCA
:1000400028E023B98B9A25E028BB22E029BB2EE1CA
:1000500026BB22E026BD789400C0F89410D017D0BB
:100060001BD0072F392F310F20D016D0032F1DD0D2
:1000700013D02DD02BED22BB78943DD0EECF41B1E3
:10008000406241B952B12ED033D029D0089500ED4D
:1000900029E011D02AD00895F89441B14F7D41B99B
:1000A000789426D060B121D00895406241B929E00A
:1000B00002D01BD0089519D02A9509F40895000F95
:1000C00018F410D015D0F7CF0AD012D0F4CF406278
:1000D00041B905D00DD006D04F7D51B908955F7D4F
:1000E00052B90895506252B908955D7F52B908958A
:1000F000526052B908953FE864E031506040E9F73A
:1001000008953F9332B1112339F430643F7732B907
:10011000139500C03F91089530683F7B32B9112795
:10012000F9CF6F933F9360E832B1362732B93F91F0
:100130006F910895F8942F932FB72F9320E022BB4F
:100140009EB17FB12F912FBF2F9178941895F8947D
:100150002F932FB72F93D5DF2F912FBF2F91789407
:020160001895F0
:00000001FF
