:020000020000FC
:1000000011C0189518951895189518951895189564
:1000100018959BC018951895189589C0189518952E
:10002000189518C000E00EBF0FEB0DBF22EC21B9F0
:1000300041B123E020BB20E022BB28E023B98B9A0A
:1000400025E028BB22E029BB2EE226BB22E026BD0C
:10005000789400C010D016D01AD0F894012F392F00
:1000600078942BED1BD013D0032F080F17D00FD08F
:1000700027D03ED0EFCF406241B952B12DD034D01D
:1000800027D0089500ED29E00FD02AD0089541B17E
:100090004F7D41B929D060B123D00895406241B964
:1000A00029E002D01DD008951BD02A9509F40895A7
:1000B000000F18F411D018D0F7CF0AD015D0F4CF14
:1000C000406241B905D010D007D04F7D41B90895A5
:1000D00052B15F7D52B9089552B1506252B908953C
:1000E00052B15D7F52B9089552B1526052B908952C
:1000F0003FE864E031506040E9F708953F9332B142
:10010000772339F430643F7732B9739500C03F915B
:10011000089530683F7B32B97727F9CF6F933F93CB
:1001200060E832B1362732B93F916F910895F89463
:100130008BED000082BB872F9EB11FB118952F93C6
:100140002FB72F9320E022BB18952F932FB72F9313
:10015000D5DF2F912FBF2F9118952F9322B12F7399
:0601600022B92F91089561
:00000001FF
