:020000020000FC
:1000000015C0189518951895189518951895189560
:10001000189508C01895189518951895189518955D
:10002000189516C032B1322732B9189522E021B99D
:1000300022E022B928B3256028BB22E029BB2EEF9D
:1000400026BB26B5226026BD42E041B9789400C0A7
:10005000FFCF41B1406241B952B12BD030D026D050
:10006000089500ED29E00ED027D008954F7D41B9C5
:1000700026D060B121D00895406241B929E002D074
:100080001BD0089519D02A9509F40895000F18F48B
:1000900010D015D0F7CF0AD012D0F4CF406241B9BA
:1000A00005D00DD006D04F7D51B908955F7D52B96E
:1000B0000895506252B908955D7F52B90895526013
:1000C00052B908957FEF8FEF90E0715080409040DB
:0400D000E1F70895B7
:00000001FF
