:020000020000FC
:1000000011C0189518951895189518951895189564
:1000100018957EC0189518951895189518951895E7
:10002000189510C020E421B920E422B925E028BBAE
:1000300022E029BB2EEF26BB22E026BD41B1426063
:1000400041B978945DD0FECF22B3206422BB22E177
:10005000205109F0FCCF14D01AD01ED008E423D0D0
:100060001BD005E420D018D00CE41DD015D00CE432
:100070001AD012D00FE417D00FD028D041D0E2CF41
:1000800041B1406241B930D037D02AD0089500ED57
:1000900029E010D02DD0089541B14F7D41B92CD029
:1000A00060B126D0089541B1406241B919E002D053
:1000B0001FD008951DD01A9509F40895000F18F463
:1000C00013D01AD0F7CF0CD017D0F4CF41B1406283
:1000D00041B906D011D008D051B15F7D51B9089512
:1000E00052B15F7D52B9089552B1506252B908952C
:1000F00052B15D7F52B9089552B1526052B908951C
:100100007FEF8FEF90E0715080409040E1F70895CD
:0A01100060E432B1362732B91895C9
:00000001FF
