:020000020000FC
:1000000011C0189518951895189518951895189564
:1000100018957BC0189518951895189518951895EA
:10002000189516C020E421B920E422B925E028BBA8
:1000300022E029BB2EEF26BB22E026BD41B1426063
:1000400041B923E020BB23E822BB20E323B9789405
:1000500023EC22BB12B300000000107109F0FACFAC
:100060001EB100001FB1000008D00ED012D002E275
:1000700017D00FD028D041D0EBCF41B1406241B969
:1000800030D037D02AD0089500ED29E010D02DD0FF
:10009000089541B14F7D41B92CD060B126D008956B
:1000A00041B1406241B929E002D01FD008951DD06E
:1000B0002A9509F40895000F18F413D01AD0F7CF39
:1000C0000CD017D0F4CF41B1406241B906D011D065
:1000D00008D051B15F7D51B9089552B15F7D52B9D9
:1000E000089552B1506252B9089552B15D7F52B92C
:1000F000089552B1526052B908957FEF8FEF90E0AA
:10010000715080409040E1F7089560E432B13627A5
:0401100032B9189553
:00000001FF
